:100000000C9474000C949C000C949C000C949C0028
:100010000C949C000C949C000C949C000C949C00F0
:100020000C949C000C949C000C949C000C948909EA
:100030000C949C000C949C000C949C000C949C00D0
:100040000C94C8070C949C000C9438080C9412086B
:100050000C949C000C949C000C949C000C949C00B0
:100060000C946A080C949C00084AD73B3BCE016E66
:1000700084BCBFFDC12F3D6C74319ABD56833DDAFF
:100080003D00C77F11BED9E4BB4C3E916BAAAABE0E
:10009000000000803F0000000000240027002A002C
:1000A00000000000250028002B00040404040404C0
:1000B0000404020202020202030303030303010217
:1000C00004081020408001020408102001020408E6
:1000D00010200000000800020100000304070000D7
:1000E000000000000000450A11241FBECFEFD8E039
:1000F000DEBFCDBF11E0A0E0B1E0E2E2F6E202C077
:1001000005900D92A432B107D9F723E0A4E2B1E043
:1001100001C01D92A431B207E1F710E0C4E7D0E0BE
:1001200004C02197FE010E940913C337D107C9F704
:100130000E94CE0A0C940F130C9400009091CF01F2
:100140008091CE012FEF3FEF981748F4E92FF0E0B0
:10015000E65EFD4F208130E09F5F9093CF01C901A3
:1001600008959091CF018091CE012FEF3FEF981726
:1001700048F4E92FF0E0E65EFD4F208130E09F5F1C
:100180009093CF01C90108958091CE019091CF0144
:10019000891B990B089590E0FC01EE52FF4F2491CA
:1001A000FC01E254FF4F3491FC01E655FF4FE4910E
:1001B000EE23C9F0222339F0233001F1A8F42130D5
:1001C00019F1223029F1F0E0EE0FFF1FE056FF4F4A
:1001D000A591B4918FB7F894EC91611126C0309538
:1001E0003E233C938FBF08952730A9F02830C9F0F3
:1001F000243049F7809180008F7D03C0809180007A
:100200008F7780938000DFCF84B58F7784BDDBCF7D
:1002100084B58F7DFBCF8091B0008F778093B00045
:10022000D2CF8091B0008F7DF9CF3E2BDACF3FB790
:10023000F8948091CA019091CB01A091CC01B0912A
:10024000CD0126B5A89B05C02F3F19F00196A11D31
:10025000B11D3FBFBA2FA92F982F8827BC01CD0110
:10026000620F711D811D911D42E0660F771F881F6F
:10027000991F4A95D1F7089508950895AF92BF92B6
:10028000CF92DF92EF92FF920F931F93CF93DF9362
:100290006C017B018B01040F151FEB015E01AE1891
:1002A000BF08C017D10759F06991D601ED91FC91B3
:1002B0000190F081E02DC6010995892B79F7C501E0
:1002C000DF91CF911F910F91FF90EF90DF90CF9032
:1002D000BF90AF900895FC01538D448D252F30E0E1
:1002E000842F90E0821B930B541710F0CF96089543
:1002F00001970895FC01918D828D981761F0A28D70
:10030000AE0FBF2FB11D5D968C91928D9F5F9F7335
:10031000928F90E008958FEF9FEF0895FC01918DEB
:10032000828D981731F0828DE80FF11D858D90E058
:1003300008958FEF9FEF0895FC01918D228D892FF5
:1003400090E0805C9F4F821B91098F7399270895DD
:1003500080E492E00E949C0121E0892B09F420E0D6
:10036000822F089580E090E0892B29F00E94A80157
:1003700081110C9400000895FC01A48DA80FB92FE1
:10038000B11DA35ABF4F2C91848D90E001968F73BD
:100390009927848FA689B7892C93A089B1898C91DC
:1003A000837080648C93938D848D981306C002882B
:1003B000F389E02D80818F7D80830895EF92FF92F5
:1003C0000F931F93CF93DF93EC0181E0888F9B8D78
:1003D0008C8D98131AC0E889F989808185FF15C032
:1003E0009FB7F894EE89FF896083E889F989808155
:1003F0008370806480839FBF81E090E0DF91CF9124
:100400001F910F91FF90EF900895F62E0B8D10E045
:100410000F5F1F4F0F731127E02E8C8D8E110CC0B4
:100420000FB607FCFACFE889F989808185FFF5CFFF
:10043000CE010E94BC01F1CFEB8DEC0FFD2FF11D21
:10044000E35AFF4FF0829FB7F8940B8FEA89FB893C
:1004500080818062CFCFCF93DF93EC01888D88239A
:10046000B9F0AA89BB89E889F9898C9185FD03C017
:10047000808186FD0DC00FB607FCF7CF8C9185FFFC
:10048000F2CF808185FFEDCFCE010E94BC01E9CF84
:10049000DF91CF91089520914601260F3327331F16
:1004A00021323105ECF420913A02FC0190E080E029
:1004B000243069F082E00895A09146012191AC01B9
:1004C0004A5D5E4FA40FB52FB11D2C930196861780
:1004D00098F380914601680F6093460180E008958B
:1004E00081E0089510923A0281E0809319021092FF
:1004F000140261E082E10E94CB0061E083E10E948E
:10050000CB00E9EBF0E080818E7F808380818D7F5E
:10051000808388E48093B80085E48093BC000895CC
:10052000CF93DF9391E0909325018823B9F0C09198
:10053000B800D091BA008091BC008A7B8093BC0047
:1005400060E082E10E94CB0060E083E10E94CB008A
:100550000E947202D093BA00C093B800DF91CF918D
:1005600008958F929F92AF92BF92CF92DF92EF92B7
:10057000FF920F931F93CF93DF93D82FC62F142F83
:10058000613208F09CC00E9417016B017C018091D0
:100590003A0281116FC081E080933A0210931902F0
:1005A0009FEF90931802109217029C0F90931602DF
:1005B0008093150280911502DD0FD82BD093150280
:1005C00080911402813009F07CC0109214020E94C4
:1005D00017016B017C01809115028093BB00809113
:1005E0003C0290913D02A0913E02B0913F02892BC6
:1005F0008A2B8B2BA1F00E94170100913C021091D5
:100600003D0220913E0230913F026C197D098E0916
:100610009F09061717072807390708F44CC080916F
:10062000BC0083FDD8CF85EC8093BC000E941701ED
:100630006B017C0180913A02813009F444C08091C1
:1006400017028C1710F4C0911702E4EFF1E0AAE151
:10065000B2E080E08C1359C08C2FDF91CF911F91B5
:100660000F91FF90EF90DF90CF90BF90AF909F9051
:100670008F90089580913C0290913D02A0913E029E
:10068000B0913F02892B8A2B8B2B09F480CF0E94DB
:10069000170180903C0290903D02A0903E02B090E5
:1006A0003F026C197D098E099F0986169706A806D8
:1006B000B90608F06CCF80913B020E949002C0E026
:1006C000CBCF85EEB1CF80913C0290913D02A091BD
:1006D0003E02B0913F02892B8A2B8B2B09F4AACFC3
:1006E0000E94170100913C0210913D0220913E02B0
:1006F00030913F026C197D098E099F090617170773
:100700002807390708F096CFD6CF91919D938F5F38
:10071000A1CF8F929F92AF92BF92CF92DF92EF9232
:10072000FF920F931F93CF93DF93D091F301D132B8
:1007300008F0D7C0182FC091F2010E9417016B0179
:100740007C0180913A0281116BC082E080933A0271
:10075000109319028FEF8093180210921702D09312
:100760001602A2EDB1E0E4EFF1E080E0D81391C011
:100770001092150280911502CC0FC82BC093150260
:1007800080911402813009F088C0109214020E94F6
:1007900017016B017C01809115028093BB00809151
:1007A0003C0290913D02A0913E02B0913F02892B04
:1007B0008A2B8B2BA1F00E94170100913C02109113
:1007C0003D0220913E0230913F026C197D098E0955
:1007D0009F09061717072807390708F442C08091B8
:1007E000BC0083FDD8CF85EC8093BC000E9417012C
:1007F0006B017C0180913A02823009F450C08091F3
:1008000018028F3F09F46FC080911802803209F4FA
:100810006CC080911802803309F469C084E026C05E
:1008200080913C0290913D02A0913E02B0913F0226
:10083000892B8A2B8B2B09F484CF0E94170180907F
:100840003C0290903D02A0903E02B0903F026C1995
:100850007D098E099F0986169706A806B90608F035
:1008600070CF80913B020E94900285E01092D101EE
:100870001092F3011092D001DF91CF911F910F914F
:10088000FF90EF90DF90CF90BF90AF909F908F90B0
:1008900008959D9191938F5F69CF85EEA5CF80914B
:1008A0003C0290913D02A0913E02B0913F02892B03
:1008B0008A2B8B2B09F49ECF0E94170100913C02DA
:1008C00010913D0220913E0230913F026C197D094A
:1008D0008E099F09061717072807390708F08ACFDE
:1008E000C0CF81E0C3CF80E0C1CF82E0BFCF83E043
:1008F000BDCF0895E091CF018091CE01E81730F48B
:10090000F0E0E65EFD4F808190E008958FEF9FEF6D
:100910000895CF92DF92EF92FF920F931F93CF93A0
:10092000DF937C01CB018A012091D001222389F041
:10093000EB016B01C40ED51ECC15DD0569F0699184
:10094000D701ED91FC910190F081E02DC70109954F
:10095000F3CF642F0E944B02C801DF91CF911F910A
:100960000F91FF90EF90DF90CF900895CF93DF939A
:100970001F92CDB7DEB769832091D0012223F9F011
:100980002091F301203258F021E030E0FC01338364
:10099000228390E080E00F90DF91CF9108958091C5
:1009A000D101E82FF0E0EE52FE4F998190838F5FE6
:1009B0008093D1018093F30181E090E0ECCF61E07E
:1009C000CE0101960E944B02F7CF682F8DED92E089
:1009D0000C94B60490E080E00895CF92DF92EF92FD
:1009E000FF92CF93DF93EC01603282E07807CCF581
:1009F000653B710514F064EB70E0898128E830E014
:100A0000281B310987FD3395220F331F220F331F17
:100A10006901330FEE08FF088A8128E532E0281BC0
:100A2000310987FD3395220F331F220F331F032E09
:100A3000000C440B550B2C193D094E095F09DB01D5
:100A400077FF02C0B0E0A0E00E94B40F24EB30E0DA
:100A500040E050E00E948A0FC20ED31EE41EF51E35
:100A6000B601E881EC3070F5298188E890E0821BBE
:100A7000910927FD9395880F991F880F991F681773
:100A800079077CF02A8188E592E0821B910927FD95
:100A90009395880F991F880F991F681779070CF491
:100AA000CB010297880F991F4FB7F8942E2F30E093
:100AB000F901EE0FFF1FE20FF31FE751FD4F928385
:100AC00081834FBFDF91CF91FF90EF90DF90CF9068
:100AD0000895CF93DF93DC018C918C3008F06DC0CA
:100AE000CB01FB01E254FF4F249186559F4FFC013F
:100AF0008491882399F090E0880F991FFC01EA56B1
:100B0000FF4FC591D491FC01E056FF4F8591949120
:100B10008FB7F894E881E22BE8838FBF8C91282F60
:100B200030E0F901EE0FFF1FE20FF31FE751FD4F19
:100B3000962F9F736081607C692B608311961C9255
:100B4000119712961C9212972CE0622F0E94FD12B0
:100B5000829FB001112430E020E0AB01420F531F0F
:100B6000FA01EE0FFF1FE40FF51FE751FD4F9081D3
:100B700096FD16C02F5F3F4F2C30310571F7811164
:100B80000FC01092800082E0809381001092850057
:100B900010928400B19A80916F00826080936F0000
:100BA000EC918E2F90E0FC01EE0FFF1FE80FF91F74
:100BB000E751FD4F8081806480838C91DF91CF91DC
:100BC00008955F926F927F928F929F92AF92BF92A1
:100BD000CF92DF92EF92FF920F931F93CF93DF9309
:100BE0006C018B014A0181E08093D00188E68093FB
:100BF000F2011092D1011092F30183E490E00E947F
:100C0000E50480E00E948903823089F040F4882363
:100C100001F1813009F46BC084E090E00AC08330B8
:100C200009F468C08530C1F785E090E002C082E039
:100C300090E0DF91CF911F910F91FF90EF90DF90A7
:100C4000CF90BF90AF909F908F907F906F905F906C
:100C5000089541E066E088E60E94B1021092CF015B
:100C60008093CE01863008F445C00E94B100582E12
:100C70000E94B1005C010E94B100682E0E94B10088
:100C80007C010E94B100782E0E94B100EC0160E06E
:100C9000752D6A297B29072E000C880B990B0E9461
:100CA0007611F601608371838283938360E0762DF1
:100CB0006E297F29072E000C880B990B0E94761154
:100CC000F801608371838283938360E0772D6C2BBE
:100CD0007D2B072E000C880B990B0E947611F401D6
:100CE000608371838283938390E080E0A2CF81E070
:100CF00090E09FCF83E090E09CCF5F926F927F92D5
:100D00008F929F92AF92BF92CF92DF92EF92FF921B
:100D10000F931F93CF93DF936C018B014A0181E006
:100D20008093D00188E68093F2011092D101109255
:100D3000F3018BE390E00E94E50480E00E948903C8
:100D4000823089F040F4882301F1813009F46BC0CE
:100D500084E090E00AC0833009F468C08530C1F7B0
:100D600085E090E002C082E090E0DF91CF911F919A
:100D70000F91FF90EF90DF90CF90BF90AF909F903A
:100D80008F907F906F905F90089541E066E088E6D5
:100D90000E94B1021092CF018093CE01863008F4F8
:100DA00045C00E94B100582E0E94B1005C010E9413
:100DB000B100682E0E94B1007C010E94B100782E23
:100DC0000E94B100EC0160E0752D6A297B29072E95
:100DD000000C880B990B0E947611F60160837183D9
:100DE0008283938360E0762D6E297F29072E000C85
:100DF000880B990B0E947611F801608371838283BE
:100E0000938360E0772D6C2B7D2B072E000C880BD5
:100E1000990B0E947611F40160837183828393831E
:100E200090E080E0A2CF81E090E09FCF83E090E06F
:100E30009CCF85ED8093BC0080913C0290913D0257
:100E4000A0913E02B0913F020796A11DB11D23E083
:100E5000B695A795979587952A95D1F72091BC00CF
:100E600024FD03C010923A02089540913C02509133
:100E70003D0260913E0270913F02452B462B472B6D
:100E800069F30097A105B10541F02AE22A95F1F72F
:100E900000C00197A109B109E1CF80913B020C94F8
:100EA00090024F925F926F927F928F929F92AF9239
:100EB000BF92CF92DF92EF92FF920F931F93CF9347
:100EC000DF93CDB7DEB72A970FB6F894DEBF0FBE1B
:100ED000CDBF6D837E838F83988729013A01E98294
:100EE000FA820B831C83BA86A986CA01B9010E94C3
:100EF00031124B015C01A8019701C801B7010E94A2
:100F000031129B01AC01C501B4010E94EE0F0E9499
:100F1000A4129B01AC016D817E818F8198859058D0
:100F20000E946D1021EE3EE245E652E40E9431122D
:100F3000F6016083718382839383A8019701C301C3
:100F4000B2010E946D1021EE3EE245E652E40E949D
:100F50003112E985FA85608371838283938390E0FF
:100F600080E02A960FB6F894DEBF0FBECDBFDF91AA
:100F7000CF911F910F91FF90EF90DF90CF90BF9096
:100F8000AF909F908F907F906F905F904F9008955B
:100F90001F920F920FB60F9211242F933F938F93AE
:100FA0009F93AF93BF938091C6019091C701A09189
:100FB000C801B091C9013091C50123E0230F2D373D
:100FC00058F50196A11DB11D2093C5018093C6015E
:100FD0009093C701A093C801B093C9018091CA0141
:100FE0009091CB01A091CC01B091CD010196A11DB2
:100FF000B11D8093CA019093CB01A093CC01B09313
:10100000CD01BF91AF919F918F913F912F910F9003
:101010000FBE0F901F90189526E8230F0296A11D72
:10102000B11DD2CF1F920F920FB60F9211242F93A2
:101030003F934F935F936F937F938F939F93AF9360
:10104000BF93EF93FF9380E492E00E94BC01FF9175
:10105000EF91BF91AF919F918F917F916F915F9130
:101060004F913F912F910F900FBE0F901F901895A9
:101070001F920F920FB60F9211242F938F939F936D
:10108000EF93FF93E0915002F09151028081E09143
:101090005602F091570282FD1BC090818091590247
:1010A0008F5F8F7320915A02821741F0E0915902AD
:1010B000F0E0E05CFD4F958F80935902FF91EF9136
:1010C0009F918F912F910F900FBE0F901F901895A9
:1010D0008081F4CF1F920F920FB60F9211242F939D
:1010E0003F934F935F936F937F938F939F93AF93B0
:1010F000BF93EF93FF938091B900887F803609F406
:101100004AC0F0F5883209F4A7C018F5803109F417
:101110009BC0B8F4882309F4F9C0883009F494C05E
:10112000FF91EF91BF91AF919F918F917F916F91BF
:101130005F914F913F912F910F900FBE0F901F9095
:101140001895883109F488C0803251F780931802CD
:1011500014C0803409F49DC040F48033B9F388335F
:10116000F9F68093180285ECB0C0803509F485C08B
:10117000883509F496C0883499F60E941907D0CFB3
:10118000883909F48CC038F5883729F050F488364E
:1011900011F0803729F683E080933A0210926801BB
:1011A00057C0883809F47BC0803919F0803809F0BD
:1011B000B7CF80916801803208F071C0E09168017A
:1011C00081E08E0F809368018091BB00F0E0E85BC6
:1011D000FE4F80833DC0803B39F0E0F4803A09F453
:1011E00079C0883A09F09CCF84E080933A0210924B
:1011F000470110924601E0916B01F0916C01099555
:101200008091460181110FC081E0809346011092C8
:10121000260109C0803C09F4A6CF883C09F4A3CF7D
:10122000883B09F07DCFE091470181E08E0F8093EC
:101230004701F0E0EA5DFE4F80818093BB00909112
:1012400047018091460129C0809115028093BB001F
:1012500085EC8093BC0064CF9091170280911602B8
:10126000981758F5E091170281E08E0F80931702CE
:10127000F0E0EC50FE4F8081E9CFE091170281E071
:101280008E0F809317028091BB00F0E0EC50FE4F70
:10129000808390911702809116029817C8F285E812
:1012A000D8CFE091170281E08E0F809317028091D2
:1012B000BB00F0E0EC50FE4F808380911902811159
:1012C0005CCF81E08093140284EA8093BC0010928A
:1012D0003A0226CF85EC8093BC0010923A028091AE
:1012E0006801803230F4E0916801F0E0E85BFE4F85
:1012F00010826091680170E0E0916901F0916A01EB
:1013000088E491E00995109268010ACF10921802C2
:1013100034CF1F920F920FB60F9211242F933F9349
:101320004F935F936F937F938F939F93AF93BF93ED
:10133000CF93DF93EF93FF9380912401C0910D032E
:10134000D0E087FF24C01092850010928400809125
:1013500024018F5F8093240180912401082E000CCA
:10136000990B8C179D0724F4809124018C30C4F1D3
:101370008091840090918500049680349C4908F403
:101380007AC08091840090918500049676C0809107
:101390002401082E000C990B8C179D07C4F6E091D0
:1013A00024018E2FEE0F990BFC01EE0FFF1FE80FAB
:1013B000F91FE751FD4F808186FFC9CFE0912401DD
:1013C0008E2FEE0F990BFC01EE0FFF1FE80FF91F98
:1013D000E751FD4F808160E08F730E94CB00B7CF53
:1013E0002091840030918500E09124018E2FEE0F32
:1013F000990BFC01EE0FFF1FE80FF91FE751FD4F9E
:1014000081819281820F931F90938900809388003D
:10141000E09124018E2FEE0F990BFC01EE0FFF1FC0
:10142000E80FF91FE751FD4F808186FF11C0E09161
:1014300024018E2FEE0F990BFC01EE0FFF1FE80F1A
:10144000F91FE751FD4F808161E08F730E94CB004F
:10145000FF91EF91DF91CF91BF91AF919F918F91CC
:101460007F916F915F914F913F912F910F900FBEA0
:101470000F901F90189580E49CE9909389008093C9
:1014800088008FEF80932401E3CF109243021092E3
:10149000420288EE93E0A0E0B0E080934402909393
:1014A0004502A0934602B093470224E031E0309316
:1014B00041022093400225EC30E030934D0220930E
:1014C0004C0224EC30E030934F0220934E0220EC8B
:1014D00030E0309351022093500221EC30E0309301
:1014E00053022093520222EC30E0309355022093B5
:1014F000540226EC30E030935702209356021092AB
:10150000590210925A0210925B0210925C021092E1
:10151000E0021092DF028093E1029093E202A09336
:10152000E302B093E40286E191E09093DE028093BF
:10153000DD0280910D038C3048F591E0980F909377
:101540000D038093110390E0FC01EE0FFF1FE80FE5
:10155000F91FE751FD4F88EB9BE0928381838091D7
:101560000D038C30B8F491E0980F90930D038093A5
:101570000E0390E0FC01EE0FFF1FE80FF91FE7518B
:10158000FD4F88EB9BE09283818308958FEF8093DA
:101590001103E5CF8FEF80930E030895CF93DF9370
:1015A000CDB7DEB7A4970FB6F894DEBF0FBECDBFA0
:1015B000789484B5826084BD84B5816084BD85B52E
:1015C000826085BD85B5816085BD80916E0081603A
:1015D00080936E00109281008091810082608093E0
:1015E00081008091810081608093810080918000E2
:1015F0008160809380008091B10084608093B1000D
:101600008091B00081608093B00080917A00846006
:1016100080937A0080917A00826080937A00809132
:101620007A00816080937A0080917A00806880934C
:101630007A001092C100E0915002F091510282E0D4
:101640008083E0914C02F0914D021082E0914E02B5
:10165000F0914F0280E1808310925802E091540291
:10166000F091550286E08083E0915202F09153029E
:10167000808180618083E0915202F09153028081E9
:1016800088608083E0915202F091530280818068EB
:101690008083E0915202F091530280818F7D80839C
:1016A00065E070E081E193E00E94690563E070E02D
:1016B0008EE093E00E9469051092CF011092CE0156
:1016C0001092D1011092F3010E9472028CE391E01A
:1016D00090936C0180936B018DE391E090936A018C
:1016E0008093690181E08093D00188E68093F201C4
:1016F0008BE690E00E94E50490E080E00E94E50423
:1017000081E00E94890310927D0110927E01109267
:101710007F01109280011092790110927A0110924B
:101720007B0110927C01109275011092760110924B
:1017300077011092780104E610E0AE014F5F5F4F31
:10174000BE016B5F7F4FCE0109960E94E10520E04C
:1017500030E043E053E46D817E818F8198850E9463
:10176000CC104B015C0120E030E043E053E46981A0
:101770007A818B819C810E94CC106B017C0120E0DE
:1017800030E043E053E469857A858B859C850E942F
:10179000CC1020917D0130917E0140917F015091CC
:1017A00080010E94EE0F2B013C0140927D0150927E
:1017B0007E0160927F0170928001209179013091C9
:1017C0007A0140917B0150917C01C501B4010E94D6
:1017D000EE0F4B015C018092790190927A01A09208
:1017E0007B01B0927C01209175013091760140918E
:1017F000770150917801C701B6010E94EE0F6B018D
:101800007C01C0927501D0927601E0927701F0924E
:1018100078010150110909F090CF20E030E048EC48
:1018200052E4C301B2010E94CC1060937D01709319
:101830007E0180937F019093800120E030E048ECAE
:1018400052E4C501B4010E94CC10609379017093F9
:101850007A0180937B0190937C0120E030E048EC9A
:1018600052E4C701B6010E94CC10609375017093D9
:101870007601809377019093780110927101109214
:101880007201109273011092740110926D01109206
:101890006E0110926F011092700164E6862E912CF9
:1018A000AE01475F5F4FBE01635F7F4FCE01419640
:1018B0000E947D0620E030E040E858E369857A85A3
:1018C0008B859C850E9431126D8B7E8B8F8B988FC0
:1018D00020E030E040E858E36D857E858F8598896B
:1018E0000E9431122B013C0120E030E040E858E337
:1018F00069897A898B899C890E9431129E012F5FA8
:101900003F4F5901AE014B5F5F4F6A01ED88FE8882
:101910000F89188DA30192010E9451072D813E81EC
:101920004F815885609171017091720180917301AE
:10193000909174010E94EE0F2B013C0140927101C5
:1019400050927201609273017092740129813A8100
:101950004B815C8160916D0170916E0180916F018E
:10196000909170010E94EE0F6B017C01C0926D019D
:10197000D0926E01E0926F01F092700151E0851AF1
:10198000910809F08DCF20E030E048EC52E4C3012B
:10199000B2010E94CC106093710170937201809328
:1019A00073019093740120E030E048EC52E4C701E9
:1019B000B6010E94CC1060936D0170936E0180930C
:1019C0006F01909370016AE570E081E193E00E94FD
:1019D000ED046AE570E08EE093E00E94ED040E9461
:1019E00017014B015C0150EDC52E57E0D52EE12CBF
:1019F000F12C0E941701681979098A099B09683E30
:101A0000734081059105A8F381E0C81AD108E10867
:101A1000F10898EE890E93E0991EA11CB11CC11427
:101A2000D104E104F10429F744E1242E312C1D8A6C
:101A30001E8A1F8A188E1D8E1E8E1F8E18A28091E0
:101A4000BD01811116C02FB7F8948091C601909105
:101A5000C701A091C801B091C9012FBF8093B901FE
:101A60009093BA01A093BB01B093BC01B1E0B093D5
:101A7000BD018FB7F894C090C601D090C701E09027
:101A8000C801F090C9018FBF8091B9019091BA014E
:101A9000A091BB01B091BC01A7019601281B390B95
:101AA0004A0B5B0BCA01B90128EE33E040E050E07D
:101AB0000E94BC0FCA01B9010E94741169A37AA3E4
:101AC0008BA39CA3C092B901D092BA01E092BB0152
:101AD000F092BC014DEA51E061EB71E085EB91E0E1
:101AE0000E94E10541EA51E065EA71E089EA91E08E
:101AF0000E947D06C090AD01D090AE01E090AF0194
:101B0000F090B0018090B1019090B201A090B3012B
:101B1000B090B40120E030E043E053E46091B501BF
:101B20007091B6018091B7019091B8010E94CC10DC
:101B300060939D0170939E0180939F019093A001FB
:101B400020E030E043E053E4C501B4010E94CC1032
:101B50006093990170939A0180939B0190939C01EB
:101B600020E030E043E053E4C701B6010E94CC100E
:101B700060939501709396018093970190939801DB
:101B8000C090A101D090A201E090A301F090A40127
:101B90008090A5019090A601A090A701B090A80107
:101BA00020E030E040E858E36091A9017091AA017B
:101BB0008091AB019091AC010E9431122B013C014C
:101BC000409291015092920160929301709294011F
:101BD00020E030E040E858E3C501B4010E94311232
:101BE000698F7A8F8B8F9C8F60938D0170938E019C
:101BF00080938F019093900120E030E040E858E31B
:101C0000C701B6010E9431126093890170938A0165
:101C100080938B0190938C0121E8A22E21E0B22EBB
:101C200035E8C32E31E0D32E7B018C01298D3A8D0E
:101C30004B8D5C8DC301B2010E94510720917D0143
:101C400030917E0140917F015091800160919D0112
:101C500070919E0180919F019091A0010E94ED0FD3
:101C6000698F7A8F8B8F9C8F60939D0170939E01FB
:101C700080939F019093A0012091790130917A0186
:101C800040917B0150917C016091990170919A0182
:101C900080919B0190919C010E94ED0F2B013C01D2
:101CA0004092990150929A0160929B0170929C011E
:101CB0002091750130917601409177015091780122
:101CC0006091950170919601809197019091980192
:101CD0000E94ED0F60939501709396018093970198
:101CE000909398012091710130917201409173019C
:101CF00050917401609185017091860180918701F6
:101D0000909188010E94ED0F6B017C01C0928501CA
:101D1000D0928601E0928701F092880120916D01B6
:101D200030916E0140916F0150917001609181017D
:101D30007091820180918301909184010E94ED0F46
:101D40004B015C018092810190928201A0928301FB
:101D5000B0928401A301920169A17AA18BA19CA1F7
:101D60000E943112A50194010E94EE0F23E333E398
:101D700043E75FE30E9431122B013C0120ED3CEC74
:101D80004CE45DE3C501B4010E9431129B01AC013A
:101D9000C301B2010E94EE0F4B015C01298D3A8D07
:101DA0004B8D5C8D69A17AA18BA19CA10E943112FF
:101DB000A70196010E94EE0F23E333E343E75FE3BD
:101DC0000E9431122B013C0120ED3CEC4CE45DE320
:101DD000C701B6010E9431129B01AC01C301B201DF
:101DE0000E94EE0F0E943E11665A7F4F8F4F9F4F09
:101DF00097FD80C00E94761120E030E040E05FE374
:101E00000E94EE0F0E943E110E9476116B017C0130
:101E1000C501B4010E943E119B01AC01265A3F4FFF
:101E20004F4F5F4FA8ECB0E00E94A90F4B015C013F
:101E300024EB30E040E050E00E948A0FCA01B90173
:101E40000E9476113DE483163FEF9306A306B30686
:101E50000CF459C020E030E040E05FE30E94EE0F58
:101E60000E943E110E9476119B01AC016D8D7E8D0A
:101E70008F8D98A10E94EE0F6D8F7E8F8F8F98A30C
:101E8000A70196016D897E898F89988D0E94EE0F3A
:101E90006D8B7E8B8F8B988F41E0241A310809F06F
:101EA000CECD20E030E040EA51E40E94CC100E9408
:101EB0003E1181E193E00E94ED0420E030E040EA31
:101EC00051E46D8D7E8D8F8D98A10E94CC100E9463
:101ED0003E118EE093E00E94ED0480E090E0892BBB
:101EE00009F4A2CD0E94A801882309F49DCD0E9487
:101EF00000009ACD0E94761120E030E040E05FE3E0
:101F00000E94ED0F7FCF20E030E040E05FE30E94D1
:101F1000ED0FA6CF052E97FB1EF400940E94A10F93
:101F200057FD07D00E94BC0F07FC03D04EF40C9461
:101F3000A10F50954095309521953F4F4F4F5F4FE2
:101F4000089590958095709561957F4F8F4F9F4F25
:101F500008950E94DE0FA59F900DB49F900DA49F41
:101F6000800D911D11240895B7FF0C94A90F0E94B4
:101F7000A90F821B930B0895A1E21A2EAA1BBB1B6B
:101F8000FD010DC0AA1FBB1FEE1FFF1FA217B30745
:101F9000E407F50720F0A21BB30BE40BF50B661F5B
:101FA000771F881F991F1A9469F76095709580951F
:101FB00090959B01AC01BD01CF010895A29FB00196
:101FC000B39FC001A39F700D811D1124911DB29F6D
:101FD000700D811D1124911D08955058BB27AA270B
:101FE0000E9405100C94EF110E94E11138F00E943C
:101FF000E81120F039F49F3F19F426F40C94B7113E
:102000000EF4E095E7FB0C94B111E92F0E94001249
:1020100058F3BA17620773078407950720F079F41D
:10202000A6F50C9422120EF4E0950B2EBA2FA02DDB
:102030000B01B90190010C01CA01A0011124FF2775
:10204000591B99F0593F50F4503E68F11A16F04070
:10205000A22F232F342F4427585FF3CF469537956F
:102060002795A795F0405395C9F77EF41F16BA0B34
:10207000620B730B840BBAF09150A1F0FF0FBB1FE2
:10208000661F771F881FC2F70EC0BA0F621F731F2B
:10209000841F48F4879577956795B795F7959E3F88
:1020A00008F0B0CF9395880F08F09927EE0F979519
:1020B000879508950E94E11160F080E891E009F4AD
:1020C0009EEF0E94E81128F040E851E071F45EEFC5
:1020D0000CC00C94B7110C942212E92FE0780E94E6
:1020E000001240F3092E052AB1F3261737074807D7
:1020F000590738F00E2E07F8E02569F0E025E06476
:102100000AC0EF6307F8009407FADB01B9019D01EB
:10211000DC01CA01AD01EF930E94E3100E94EF11B0
:102120000E949D105F91552339F02BED3FE049E46B
:1021300050FD49EC0C94EE0F0895DF93DD27B92F85
:10214000BF7740E85FE31616170648075B0718F4E9
:10215000D92F0E9429129F938F937F936F930E9490
:10216000E412E8E6F0E00E94BA110E94EF112F910C
:102170003F914F915F910E944412DD2351F090589E
:10218000A2EA2AED3FE049EC5FE3D0785D270E94A8
:102190000510DF910C94EF110E94E0100C94EF11E8
:1021A0000E94E81158F00E94E11140F029F45F3FCD
:1021B00029F00C94B11151110C9423120C94B71105
:1021C0000E94001268F39923B1F3552391F3951BF4
:1021D000550BBB27AA2762177307840738F09F5F48
:1021E0005F4F220F331F441FAA1FA9F335D00E2EB5
:1021F0003AF0E0E832D091505040E695001CCAF722
:102200002BD0FE2F29D0660F771F881FBB1F2617E4
:1022100037074807AB07B0E809F0BB0B802DBF01BB
:10222000FF2793585F4F3AF09E3F510578F00C948A
:10223000B1110C9423125F3FE4F3983ED4F38695DA
:1022400077956795B795F7959F5FC9F7880F911DAB
:102250009695879597F90895E1E0660F771F881F97
:10226000BB1F621773078407BA0720F0621B730B4A
:10227000840BBA0BEE1F88F7E09508950E94451174
:102280006894B1110C94231208950E94081288F0EA
:102290009F5798F0B92F9927B751B0F0E1F0660F2A
:1022A000771F881F991F1AF0BA95C9F714C0B1306B
:1022B00091F00E942212B1E008950C942212672F2F
:1022C000782F8827B85F39F0B93FCCF3869577959A
:1022D0006795B395D9F73EF4909580957095619583
:1022E0007F4F8F4F9F4F0895E89409C097FB3EF4AE
:1022F00090958095709561957F4F8F4F9F4F992353
:10230000A9F0F92F96E9BB279395F69587957795D0
:102310006795B795F111F8CFFAF4BB0F11F460FF90
:102320001BC06F5F7F4F8F4F9F4F16C0882311F0E8
:1023300096E911C0772321F09EE8872F762F05C0FC
:10234000662371F096E8862F70E060E02AF09A9597
:10235000660F771F881FDAF7880F9695879597F98C
:10236000089597F99F6780E870E060E008959FEF17
:1023700080EC0895DF93CF931F930F93FF92EF921A
:10238000DF927B018C01689406C0DA2EEF010E9477
:102390004412FE01E894A5912591359145915591FE
:1023A000A6F3EF010E940510FE019701A801DA943F
:1023B00069F7DF90EF90FF900F911F91CF91DF9120
:1023C000089500240A94161617061806090608959B
:1023D00000240A9412161306140605060895092E01
:1023E0000394000C11F4882352F0BB0F40F4BF2B70
:1023F00011F460FF04C06F5F7F4F8F4F9F4F0895B0
:1024000057FD9058440F551F59F05F3F71F04795A5
:10241000880F97FB991F61F09F3F79F0879508958A
:10242000121613061406551FF2CF4695F1DF08C0A9
:10243000161617061806991FF1CF869571056105C6
:1024400008940895E894BB2766277727CB0197F96E
:1024500008959B01AC0160E070E080E89FE30C947C
:10246000CC100E9444120C94EF110E94E11138F03C
:102470000E94E81120F0952311F00C94B1110C94F6
:10248000B71111240C9423120E94001270F3959F2F
:10249000C1F3950F50E0551F629FF001729FBB275B
:1024A000F00DB11D639FAA27F00DB11DAA1F649FF7
:1024B0006627B00DA11D661F829F2227B00DA11DAA
:1024C000621F739FB00DA11D621F839FA00D611D30
:1024D000221F749F3327A00D611D231F849F600D51
:1024E000211D822F762F6A2F11249F5750409AF07A
:1024F000F1F088234AF0EE0FFF1FBB1F661F771F06
:10250000881F91505040A9F79E3F510580F00C94D0
:10251000B1110C9423125F3FE4F3983ED4F38695F7
:1025200077956795B795F795E7959F5FC1F7FE2B70
:10253000880F911D9695879597F9089519F416F4CB
:102540000C94B7110C94E8120E940812B8F3992366
:10255000C9F3B6F39F57550B87FF0E94F61200246C
:10256000A0E640EA900180585695979528F4805C43
:10257000660F771F881F20F026173707480730F4AB
:10258000621B730B840B202931294A2BA6951794C3
:102590000794202531254A2758F7660F771F881F93
:1025A00020F026173707480730F4620B730B840BB3
:1025B000200D311D411DA09581F7B901842F91583F
:1025C000880F9695879508959B01AC010C94311264
:1025D0009F3F31F0915020F4879577956795B79597
:1025E000880F911D9695879597F9089591505040C1
:1025F000660F771F881FD2F70895991B79E004C0F2
:10260000991F961708F0961B881F7A95C9F7809531
:102610000895EE0FFF1F0590F491E02D0994F894B2
:02262000FFCFEA
:1026220000000000DE013E016B012B029C017A01D9
:102632008E0100000000B6048904EA047904C40093
:042642009E007A0478
:00000001FF
